:020000040800F2
:10000000004501205D020008413A0008E33900087C
:100010003D3A0008590B0008E55B000800000000AD
:100020000000000000000000000000009D0100082A
:100030000511000800000000F9010008014C00084B
:1000400077020008770200087702000877020008AC
:10005000770200087702000877020008770200089C
:10006000770200087702000877020008770200088C
:10007000770200087702000877020008770200087C
:10008000770200087702000877020008770200086C
:10009000770200087702000877020008770200085C
:1000A000770200087702000877020008770200084C
:1000B000770200087702000877020008770200083C
:1000C000770200087702000877020008770200082C
:1000D000770200087702000877020008355A000806
:1000E000C1150008770200087702000877020008AF
:1000F00077020008770200087702000877020008FC
:1001000077020008770200087702000877020008EB
:100110007702000877020008214D000877020008E6
:1001200077020008770200087702000877020008CB
:100130007702000899120008770200087702000889
:10014000650B0008770200087702000877020008B4
:10015000770200087702000877020008770200089B
:10016000770200087702000877020008770200088B
:1001700077020008770200087702000800000000FC
:100180007702000877020008DFF80CD000F0ACFA24
:10019000004800478DBE0008004501202C4B19681F
:1001A0000868B0E8F04F80F30988BFF36F8F4FF015
:1001B000000080F3118870470000000008480068C4
:1001C000006880F308884FF0000080F3148862B65E
:1001D00061B6BFF34F8FBFF36F8F00DF00BF00BF6B
:1001E00008ED00E0DFF80C00016841F470010160E7
:1001F000704700BF88ED00E0EFF30980BFF36F8F19
:10020000134B1A681EF0100F08BF20ED108A20E96A
:10021000F04F106009B44FF0500080F31188BFF325
:100220004F8FBFF36F8F18F0C9FA4FF0000080F3C3
:10023000118809BC19680868B0E8F04F1EF0100F6B
:1002400008BFB0EC108A80F30988BFF36F8F704746
:1002500054000010EFF30580704700000648804707
:1002600006480047FEE7FEE7FEE7FEE7FEE7FEE79B
:10027000FEE7FEE7FEE7FEE7BD4C00088901000847
:100280002DE9F05F0546002092469B4688460646CB
:10029000814640241BE0284641464746224600F05E
:1002A000B6F953465A46C01A914110D31146184622
:1002B000224600F09DF92D1A67EB01084F462246B1
:1002C0000120002100F094F917EB00094E41201E97
:1002D000A4F10104DFDC484631462A464346BDE826
:1002E000F09F00000649074A0868504343F239026C
:1002F00010440860400870470149086070470000DA
:10030000740100106D4EC64110B5431A934209D2D4
:100310008318881803E010F8011D03F8011D521E10
:10032000F9D210BD40EA01039B0703D009E008C9D8
:10033000121F08C0042AFAD203E011F8013B00F8AA
:10034000013B521EF9D210BDD2B201E000F8012BE0
:10035000491EFBD270470022F6E710B513460A4645
:1003600004461946FFF7F0FF204610BD30B504469D
:100370000020034600E05B1C934203D2E05CCD5CAE
:10038000401BF8D030BD034611F8012B00F8012BBB
:10039000002AF9D1184670472DE9FE4F81EA03047F
:1003A00004F0004421F0004100944FF0000B23F0D2
:1003B000004350EA01045ED052EA03045BD0C3F369
:1003C0000A54C1F30A552C44A4F2F3340194A0FB5F
:1003D0000254C1F3130141F48011C3F3130343F436
:1003E000801301FB024400FB034E840A970A44EA8F
:1003F000815447EA8357A4FB076802958D0A05FBE1
:1004000007854FEA932C04FB0C542705029D4FEA05
:10041000065847EA1637B5EB08056EEB070C870E52
:10042000920E47EA811742EA8312A7FB0201B6EB5C
:100430000B0164EB00042B0D43EA0C335E1844EB14
:100440001C50DA465146E7FB0201C5F313044FEA9C
:100450000B3343EA14534FEA0432019C43EA060388
:10046000A4F10C040294009CCDE900B400F0EEF875
:1004700003B0BDE8F08F00200146F9E72DE9F04D0B
:1004800081EA030404F0004B21F0004514464FF0CC
:10049000000A23F0004150EA050220D054EA01028C
:1004A0001DD0C5F30A570246C5F31303C1F3130069
:1004B000C1F30A5640F4801543F48013A7EB0608F5
:1004C000101BD64608F2FD3873EB050002D308F185
:1004D000010801E092185B41B8F1000F03DA002037
:1004E0000146BDE8F08D00204FF480110646844699
:1004F0000EE0171B73EB050705D3121B63EB050317
:1005000006434CEA010C49084FEA300092185B415F
:1005100050EA0107EDD152EA030012D082EA04004A
:1005200083EA0501084305D0101BAB4106D2012226
:10053000002306E000224FF0004302E06FF00102CA
:1005400053101AEB06004CEB085110EB0A0041EB7C
:100550000B01BDE8F04D00F06AB80EB540F2334132
:1005600002910021CDE900110A460B4600F06EF819
:1005700003B000BD0EB540F2334202920022CDE935
:100580000022134600F062F803B000BDC1F30A5226
:1005900010B5C1F3130140F2FF3341F480119A42C8
:1005A00001DA002010BD40F233439A42A2F23342F6
:1005B00003DC524200F02BF810BD904010BD00004B
:1005C00030B5041E71F1000404DB4FF000444042DA
:1005D00064EB0101141E73F1000405DB1C464FF0AF
:1005E0000043524263EB04038B4208BF824230BD9A
:1005F000202A04DB203A00FA02F1002070479140E3
:10060000C2F1200320FA03F3194390407047202AD7
:1006100004DB203A21FA02F00021704721FA02F3AC
:10062000D040C2F12002914008431946704710B5EE
:10063000141E73F1000408DA401C41F10001921805
:100640005B411A4301D120F0010010BD2DE9F04DAE
:1006500092469B4611B1B1FA81F202E0B0FA80F203
:1006600020329046FFF7C4FF04460F4640EA0A00D6
:1006700041EA0B0153465A46084313D0114653EA48
:10068000010019D0C8F140025046FFF7C0FF0546EF
:100690000E46504659464246FFF7AAFF084305D08A
:1006A000012004E020463946BDE8F08D00200543D6
:1006B00046EAE0762C4337430A986305E40AA0EB48
:1006C00008000022FD0A44EA47540A3002D50020FF
:1006D0000146E9E7010510196941DDE908450019FE
:1006E0006941BDE8F04DA2E7064C074D06E0E06821
:1006F00040F0010394E8070098471034AC42F6D369
:10070000FFF746FDA4DC0108E4DC010870B58C1895
:1007100010F8015B15F0070301D110F8013B2A1115
:1007200006D110F8012B03E010F8016B01F8016B02
:100730005B1EF9D12B0705D40023521E0DD401F8FE
:10074000013BFAE710F8013BCB1A921C03E013F8C7
:10075000015B01F8015B521EF9D5A142D8D30020FC
:1007600070BD000000B587B000BF002001901848A0
:10077000006840F00200164908600846006800F072
:100780000200019000BF00BF4FF48040029011486A
:1007900003900020049002A90F4802F0AFF8002255
:1007A0000F21282002F037FA282002F024FA002036
:1007B00000F06EF9012000F06BF9032000F068F9F9
:1007C00004F00CFD05A005F03FFA07B000BD0000E5
:1007D00030380240000021100004024020205374F1
:1007E0006174653A2045746865726E657420496E5F
:1007F000697469616C697A6174696F6E202E2E2E3E
:100800000A0000002DE9F041054600240D48066865
:10081000056000BF08E000F0F9F887B2A1B23A46DF
:10082000002000F0B1F8641C00F0F8F8A042F2D803
:10083000044806600146098888B200F023F9BDE843
:10084000F0810000E40100202DE9F04106460F464A
:100850001446A4F120000B498968C9884843094916
:1008600089688988CD1DE91705EB5171C910054BC1
:100870009B681B6800FB01323946304600F044FC9F
:10088000BDE8F081E401002010B5024909688868DC
:10089000804710BD280000102DE9FF5F0446154673
:1008A0001F464FF001084FF000090026B246AB4644
:1008B00000E0761C1BF8011B0029FAD100F0A6F815
:1008C000284989688988B0FBF1FA012F04D0022FEA
:1008D0000FD0032F18D10AE0AAEB0600214989683E
:1008E0008988484304EB50001FFA80F80EE0A046C8
:1008F0000CE0AAEB06001B4989688988624200FB6C
:1009000001201FFA80F801E0A04600BF00BF0FE001
:100910002A7840460199FFF797FF1248806880883F
:1009200040441FFA80F86D1C09F101001FFA80F99C
:1009300000F06CF80B498968898809FB110080B2C6
:10094000084989688988884201D3012000E0002095
:10095000297809B1012100E0002108400028D7D101
:10096000BDE8FF9FE401002070B504460D4600F08D
:1009700047F8C088604386B203232A4631460020E8
:10098000FFF78AFF70BD00002DE9F04104460F46D5
:10099000154600260F480068006A58B10E490988BC
:1009A00088B20C4909682B463A46D1F820C0214646
:1009B000E0470CE0002608E0074909888AB2A1193F
:1009C00088B2394600F00AF8761CAE42F4D3BDE88E
:1009D000F081000028000010E401002070B50446FA
:1009E0000D46164605480068406930B10348006866
:1009F0003246294643692046984770BD28000010BA
:100A00000148806870470000E401002010B50249E9
:100A10000968886A804710BD2800001010B5024997
:100A20000968C86A804710BD2800001010B501246D
:100A300000200D4948600D4888604FF6FF7008603F
:100A40000B494868804749F22531884209D1084856
:100A500008490860096808688047044800F00CF8F5
:100A60000024204610BD0000E40100201800001002
:100A70003C000020280000100149886070470000F9
:100A8000E40100200149086070470000E4010020F3
:100A900010B586B0044600BF7CB900BF00200090AE
:100AA0002A48006840F0400028490860084600686D
:100AB00000F04000009000BF35E0012C0FD100BFD6
:100AC000002000902148006840F040001F49086065
:100AD0000846006800F04000009000BF23E0022CB0
:100AE0000FD100BF002000901848006840F48070CB
:100AF000164908600846006800F48070009000BF46
:100B000011E0032C0FD100BF002000900F480068B7
:100B100040F004000D4908600846006800F0040039
:100B2000009000BF00BF00BF094830F814000190DA
:100B300001200290039002200490064951F82400FD
:100B400001A901F0DBFE06B010BD00003038024004
:100B500058D501081000002000BFFEE710B500F0D6
:100B600035FD10BD30B589B06B4602AA0021324870
:100B700000F03CFF00B15CE00498042807D106991E
:100B8000C8B22E490A68012103F0AAFE06E00699C0
:100B9000C8B22A490A68002103F0A2FE284800785A
:100BA000012800D145E0049808B9029D00E0039DAA
:100BB00024490698096801EB8101234A02EB81016F
:100BC00008722048006800EB8000114601EB8000AD
:100BD000C56000F05FFE1B49096801EB81011A4AFC
:100BE00002EB8101086100240AE01DF804001549A8
:100BF000096801EB8101144A02EB81010855641C6C
:100C00000698A042F1D80F480068401C0D490860C2
:100C100008460068B0F5007F01DB00200860094845
:100C200000680A490968884202D101200449087015
:100C300000BF09B030BD000088110120480100103C
:100C40004401001040010010B01101203C010010CF
:100C500070B590B004460D4600BF00200090834858
:100C6000006840F08060814908600846006800F034
:100C70008060009000BF00BF00BF002000900846C9
:100C8000006840F0007008600846006800F00070DE
:100C9000009000BF00BF00BF0020009073481038D4
:100CA000006840F002007149103908600846006889
:100CB00000F00200009000BF00BF20200190022041
:100CC000029003200490002003900920059001A9C0
:100CD000674801F013FE00220121402001F09BFF34
:100CE000402001F088FF63486349086000216248A2
:100CF000017641768176C176017741770DB98160C1
:100D000009E0012D03D1E9075B48816003E06FF042
:100D1000004010B070BD02F0BBF8584988426FD156
:100D200000215548C1604FF4E02101614FF480017A
:100D300041612046524AA11A94423ED014DCA0F5EB
:100D40000050A0F5E26020B3A0F50050A0F5E260ED
:100D500020B3A0F5E040A0F5A66020B3A0F5404088
:100D6000A0F5547098BB23E0A1F5F430A0F1480041
:100D700040B3A0F57430A0F1900048B3A0F57430F2
:100D8000A0F1900050B3A0F57430A0F19000F0B93C
:100D900029E04FF49670384948602CE04FF09600F7
:100DA0003549486027E04FF03C003349486022E075
:100DB0004FF01E00304948601DE04FF018002E49EA
:100DC000486018E04FF00C002B49486013E00FE03A
:100DD000FFE74FF00600284948600CE04FF00400A0
:100DE0002549486007E04FF003002349486002E0CE
:100DF0004FF488708DE700BF224804600AE0FFE7E7
:100E000002F046F8064631461FA004F01DFF40F2EE
:100E100011107EE7184800F0A6FE0E200B9000206F
:100E20000C9001200D9000200690079008900990EA
:100E30000A9001200E900E200F9006A90E4800F097
:100E400043FD10B16FF0004063E70B4800F046FF30
:100E500010B16FF000405CE70221074800F01EFD72
:100E600010B16FF0004054E7002052E740380240D4
:100E700000040240006800408811012080DE8002EA
:100E800048E8010048010010556E6578706563748C
:100E900065642050434C4B313A2025640A00000021
:100EA000002003490860034908600349087070473F
:100EB0003C010010400100104401001030B585B025
:100EC00004461D480078012804D1FFF7E9FF0320FC
:100ED00005B030BD1948006819490968884201D138
:100EE0000220F5E71648006800EB8000154A02EB87
:100EF000800114226846FFF707FA9DF80800207267
:100F00000398E06004982061002503E01DF80500C7
:100F100060556D1C9DF80800A842F7DC0848006881
:100F2000401C0749086008460068B0F5007F01DBF7
:100F3000002008600020CBE74401001040010010B1
:100F40003C010010B011012010B504461048007893
:100F5000012805D100202060FFF7A2FF032010BD6B
:100F60000C4800680C490968884208DD0948006897
:100F7000C0F50070084909680844206005E006488B
:100F8000006804490968401A20600020E7E7000073
:100F9000440100103C0100104001001088B00546DB
:100FA0002C4600BF3348007803F0E0FC314800785D
:100FB000012804D0022810D0052855D14DE000208A
:100FC0006060A060E060204606F070FD02202949C4
:100FD000087029A004F038FE47E0204606F0FCFD2A
:100FE00098B1032023490870201D09F037FA0746FD
:100FF0003A462BA1684604F037FE694629A004F062
:1010000023FE684603F0BCFC26E0666AB07904283B
:1010100022DD042017490870204606F0D7FD2C4831
:1010200007906FF07F4006902A48059005AB06AA0E
:1010300007A920460CF0CCFB201D09F00FFA07464B
:101040003A4617A1684604F00FFE23A004F0FCFD09
:10105000694626A004F0F8FD07E0204606F0B6FD3C
:1010600000200449087000E000BF00BFFA200CF027
:101070009BFD97E710010010202053746174653ABE
:10108000204C6F6F6B696E6720666F722044484317
:101090005020736572766572202E2E2E0A00000095
:1010A0002573000049502061646472657373206188
:1010B000737369676E6564206279206120444843D8
:1010C00050207365727665723A2025730A0000001D
:1010D000C0A8000AC0A80001444843502054696DCC
:1010E000656F7574202121200A000000537461741B
:1010F000696320495020616464726573733A2025E6
:10110000730A0000704700002DE9FC5F074689461E
:1011100092464FF00008002630488068B0F806B0CC
:101120002E4880688588E81DC11700EB5171C910F1
:10113000C5EBC101C9B2019100BF4BE0E81DC11769
:1011400000EB5171C91001FB08A4C11700EB5171EC
:10115000C910012904D0022905D0032909D109E0C9
:10116000207800900FE06078217840EA012000901C
:1011700009E000BF20780004617840EA0120A178EE
:101180000843009000BF00BF00261BE0A91B019888
:101190000844401E012101FA00F00099084040B1C6
:1011A0000E4909888AB2B91988B24946FFF716FC78
:1011B00007E00A4989888AB2B91988B24946FFF717
:1011C0000DFC761CAE42E1D309F101001FFA80F953
:1011D00008F10108D845B1D3BDE8FC9FE401002027
:1011E000016801F58051896921F00202016801F569
:1011F00080518A617047016801F58051896941F029
:101200000202016801F580518A617047016801F5A9
:101210008051896921F40052016801F580518A6189
:101220007047016801F58051896941F400520168F5
:1012300001F580518A61704708B508490968C908F5
:101240004FF47A72B1FBF2F14143009100BF00BF4D
:1012500000994A1E00920029F9D108BD0000002023
:1012600038B5044600200090206800F58050806961
:1012700040F48011206800F580508161206800F5FD
:101280008050806900900120FFF7D6FF0099206808
:1012900000F58050816138BD10B5024800F0FCFEB9
:1012A00010BD00009CFE002030B50346147955792E
:1012B00044EA0520084C0C442064D4782406957830
:1012C00044EA0544557844EA0524157844EA0500C3
:1012D000014C0C44606430BD0080024070B5AEB07B
:1012E00004460E46002526B14FF40061E160C900B6
:1012F000A1600020119012901390149015901690F8
:10130000E06918B94FF48060179001E00020179051
:101310004FF400701890002019901A901B901C90A8
:101320001D9040201E9000201F9020902190229020
:1013300023902490259026908020279000202890AC
:1013400029902A902B902C902D9020680568714848
:101350000540DDE911010843139908431499084336
:10136000A16808431599084316990843E1680843A2
:101370001799084318990843199908431A9908437B
:101380001B99084305432068056020680568012013
:1013900000F0E8FC20680560DDE91C0108431E99A7
:1013A00008431F990843209908432199084322992B
:1013B0000843239908432168486020684568012054
:1013C00000F0D0FC2068456024982168886025984A
:1013D0002168C860206885694FF641700540DDE9E5
:1013E000261040EA014028990843299908432A9980
:1013F00008432B9908430543206885612068856967
:10140000012000F0AFFC20688561DDE92C01084374
:101410002168C8612068C569012000F0A3FC20682C
:10142000C561002001904FF00070029000200390F1
:101430004FF400100490002005900690079008904B
:1014400004200990C0050A9040120B9080010C9076
:1014500040120D9080200E9000200F901090206878
:1014600000F5805085692C480540DDE901010843FD
:1014700003990843049908430599084306990843CA
:1014800007990843089908430999084305432068C8
:1014900000F580508561206800F580508569012045
:1014A00000F060FC206800F580508561DDE90A01EC
:1014B00008430C9908430D9908430E9908430F9966
:1014C00040EA81001099084340F40001206800F5CB
:1014D00080500160206800F580500568012000F010
:1014E00041FC206800F580500560A069012809D101
:1014F000206800F58050C06908490843216801F55B
:101500008051C861002120466269FFF7CDFE2EB0F0
:1015100070BD00000F8120FF233FDEF84000010076
:1015200038B50446002000902068006820F00400D0
:10153000216808602068006800900120FFF77CFEA9
:1015400000982168086038BD38B504460020009036
:101550002068006840F00400216808602068006886
:1015600000900120FFF768FE00982168086038BDF0
:1015700038B50446002000902068006820F008007C
:10158000216808602068006800900120FFF754FE81
:1015900000982168086038BD38B5044600200090E6
:1015A0002068006840F00800216808602068006832
:1015B00000900120FFF740FE00982168086038BDC8
:1015C00010B54FF4004001F08BF910BD00B587B0A5
:1015D00000BF002001901148006840F040000F4912
:1015E00008600846006800F04000019000BF00BF9E
:1015F0000B480390002004904FF40040029002A991
:10160000084801F07BF900220321282001F003FBA8
:10161000282001F0F0FA07B000BD00003038024089
:10162000000021100018024000B59BB04FF0204090
:10163000079016480890052000900120019009208D
:101640000290002003900220049005900020069054
:101650000420099000210A910B9110210C91002186
:101660000D910E910F911091810211910021129113
:10167000139114911591189100F00AF86A46694681
:1016800007A801F021FF1BB000BD0000040100A06D
:1016900000B587B000BF002001903948006840F0D5
:1016A0000100374908600846006800F00100019019
:1016B00000BF00BF00BF002001903148083800681B
:1016C00040F008002E49083908600846006800F01C
:1016D0000800019000BF00BF00BF00200190084635
:1016E000006840F0100008600846006800F0100034
:1016F000019000BF00BF00BF0020019008460068B5
:1017000040F0200008600846006800F020000190CA
:1017100000BF00BF00BF002001900846006840F0F5
:10172000400008600846006800F04000019000BFDB
:1017300000BF0220039001200490032005900C209C
:1017400006904FF63370029002A90E4801F0D6F8C9
:101750004FF69B70029002A90B4801F0CFF84FF2B0
:101760003F00029002A9094801F0C8F840F23F404A
:10177000029002A9064801F0C1F807B000BD0000C0
:1017800038380240000C02400010024000140240B1
:10179000001802404FF0D040408870474FF0D041D1
:1017A000488070474FF0D0410880704770B50446BC
:1017B0001D460023B5F5804F13D154F822300C4854
:1017C0000340D1E9000640EA06108E6840EA062090
:1017D0008E8940EA06408E693043034344F8223044
:1017E00003E06FF0704044F82200002070BD00005C
:1017F0000000F0CF10B503460022086853F82020FF
:1018000012480240D1E901042043CC6820430C690E
:1018100020434C6920438C692043CC6920430C6AE7
:1018200020434C6A20438C6A2043CC6A2043CC6B13
:1018300020430C6B204302438868082801D142F002
:101840004002086843F82020002010BD8000F0FF0F
:1018500030B503460024501C53F8204004F04044A7
:10186000D1E9000540EA05108D6840EA05208D8920
:1018700040EA0545088A401E45EA0055087D801E5D
:1018800045EA00608D6928430443501C43F820401A
:10189000002030BD10B517F09BFD10BD10B50246FD
:1018A00092F82030012B01D0022B06D1106840693C
:1018B000084314686061002010BD506A40F4802025
:1018C00050620120F8E70000F0B504460A4621689E
:1018D00094F82050012D01D0022D7ED1424901F50E
:1018E0000071086840F001000860086820F47C502E
:1018F00008600868566A40EA06200860107D00F01B
:101900001F06012000FA06F3C8699843C861A1F5D3
:101910000071D069C8B9D1F80C029843C1F80C0223
:10192000908880B2968940EA064601F510705769A2
:1019300040F83760108880B2168940EA064601F503
:101940001070576900EBC7004660D069012819D1B3
:10195000D1F80C021843C1F80C02908880B21688A6
:1019600040EA064601F51070576940F837609089E3
:1019700080B2168940EA064601F51070576900EBFF
:10198000C7004660906928B9D1F804029843C1F8AD
:10199000040204E0D1F804021843C1F804021069FB
:1019A00028B9D1F814029843C1F8140204E0D1F820
:1019B00014021843C1F81402106A012804D1D1F8A6
:1019C0001C021843C1F81C02D1F8000220F00100EB
:1019D000C1F800020020F0BDFFE7606A40F48020FB
:1019E00060620120F7E700000064004070B5044623
:1019F00094F82050012D01D0022D7DD151B92068DD
:101A0000C06800F0030080B9606A40F400106062B2
:101A1000012070BD2068006900F0030028B9606AE9
:101A200040F4001060620120F3E7206800F5D870F0
:101A300000EB0110006800F004009060906840B96D
:101A4000206800F5D87000EB01100068400D1060B0
:101A500007E0206800F5D87000EB01100068C008AE
:101A60005060206800F5D87000EB0110006800F0AD
:101A70000200D060206800F5D87000EB01104068CB
:101A800000F00F001061206800F5D87000EB011025
:101A9000406800F47F40000A9061206800F5D8702B
:101AA00000EB01104068000C5061206800F5D87010
:101AB00000EB011080681870206800F5D87000EB0A
:101AC0000110806800F47F40000A5870206800F51B
:101AD000D87000EB0110806800F47F00000C987053
:101AE000206800F5D87000EB01108068000ED870F7
:101AF000206800F5D87000E02FE000EB0110C0680E
:101B00001871206800F5D87000EB0110C06800F46F
:101B10007F40000A5871206800F5D87000EB011072
:101B2000C06800F47F00000C9871206800F5D87040
:101B300000EB0110C068000ED87131B92068C06890
:101B400040F020002668F06005E02068006940F061
:101B500020002668306100205BE7606A40F4802046
:101B60006062012055E770B504460CB9012070BDD4
:101B700094F8200010B9204600F0AFF82068006803
:101B800020F002002168086000F0BEFF05460DE06D
:101B900000F0BAFF401B0A2808D9606A40F4003000
:101BA0006062052084F820000120E0E7206840689A
:101BB00000F002000028EBD12068006840F001002E
:101BC0002168086000F0A0FF05460DE000F09CFFD2
:101BD000401B0A2808D9606A40F400306062052082
:101BE00084F820000120C2E72068406800F001006E
:101BF0000028EBD0207E012806D12068006840F044
:101C000080002168086005E02068006820F08000FE
:101C100021680860607E012806D12068006840F0D5
:101C200040002168086005E02068006820F040005E
:101C300021680860A07E012806D12068006840F075
:101C400020002168086005E02068006820F020007E
:101C500021680860E07E012806D12068006820F035
:101C600010002168086005E02068006840F010005E
:101C700021680860207F012806D12068006840F0B4
:101C800008002168086005E02068006820F008006E
:101C900021680860607F012806D12068006840F054
:101CA00004002168086005E02068006820F0040056
:101CB00021680860D4E90201084321690843616989
:101CC00008436168491E08432168C86100206062BA
:101CD000012084F82000002049E7704770B50446D1
:101CE00094F82000012822D1022084F820002068E6
:101CF000006820F001002168086000F005FF05463B
:101D00000DE000F001FF401B0A2808D9606A40F48A
:101D100000306062052084F82000012070BD20683A
:101D2000406800F001000028EBD16062F6E7606ACD
:101D300040F4002060620120F0E7014691F8350090
:101D4000022803D08020486501207047052081F8D3
:101D500035000868006820F001000A681060002063
:101D6000F3E7000070B5044600F0CEFE06462546B7
:101D7000681C10B104480078054400BF00F0C4FEA0
:101D8000801BA842FAD370BD0C00002070B5054638
:101D90000C46002600BF95F84500012801D102201D
:101DA00070BD012085F8450000BF022085F8440081
:101DB000002C6DD02868066843480640D4E900012D
:101DC0000843A1680843E1680843A96808432169FA
:101DD000084361690843E9680843A1690843E16968
:101DE0000843216A0843616A0843A16A084306431D
:101DF00028680660286806680120FFF7B3FF286896
:101E00000660D4E90B010843616B0843A16B0843EA
:101E1000E16B0843216C0843616C0843A16C0843E3
:101E200029684860286846680120FFF79BFF2868FA
:101E30004660E06C29688860206D2968C860286861
:101E400086694FF641700640B4F85410A06D40EA20
:101E50000140E16D0843216E0843616E0843A16EA5
:101E60000843064328688661286886690120FFF7D1
:101E700079FF28688661D4E91B0108432968C86195
:101E80002868C6690120FFF76DFF2868C66110E069
:101E90002868066826F49046D5E9020108430643FF
:101EA00028680660286806680120FFF75BFF28683D
:101EB0000660012085F8440000BF002085F8450039
:101EC00000BF00BF6CE700000F8120FF70B5044623
:101ED0000D461646002200BF94F84500012801D1A6
:101EE000022070BD012084F8450000BF022084F864
:101EF0004400A56200221FE005EB42114FF00040B4
:101F0000086044F2F4504860C2EBC21000EB40009D
:101F100006EB80008860A069012803D1486820F0A2
:101F200000404860581E904204D905EB4210203012
:101F3000C86000E0CD60521C9A42DDD3206800F5F5
:101F40008050C560012084F8440000BF002084F860
:101F5000450000BF00BFC4E770B504460D461646F5
:101F6000002200BF94F84500012801D1022070BD75
:101F7000012084F8450000BF022084F84400E56297
:101F800000221BE005EB42114FF480100860C2EB09
:101F9000C21000EB400006EB80008860E06918B9D1
:101FA000086840F440000860581E904204D905EBD0
:101FB00042102030C86000E0CD60521C9A42E1D34C
:101FC000206800F580500561012084F8440000BFBE
:101FD000002084F8450000BF00BFC8E770470146F5
:101FE000002200BF91F84500012801D1022070476E
:101FF000012081F8450000BF022081F844003AE04A
:10200000521C886A006800F44070B0F5007F07D168
:10201000886A086301238B63886AC06888622AE043
:10202000886A006800F4407030B9886B401C88638F
:10203000886AC06888621EE08B6A4B63886B401CAC
:102040008863886B012801D1886A0863886A006800
:10205000C0F30D40001FC863086B83680B64886A77
:10206000C0688862012081F8440000BF002081F828
:10207000450000BFBBE7886A006800F0004008B96F
:10208000042ABDD3012081F8440000BF002081F85C
:10209000450000BF0120AAE710B50446206800F5FE
:1020A0008050406900F0400040280FD1204600F0E9
:1020B000CBFA4021206800F580504161012084F86E
:1020C000440000BF002084F8450016E0206800F5B9
:1020D0008050406900F0010078B1204600F0AFFB6D
:1020E0000121206800F580504161012084F84400FE
:1020F00000BF002084F8450000BF4FF48031206805
:1021000000F580504161206800F58050406900F47E
:102110000040B0F5004F10D12046FFF75FFF4FF4AD
:102120000041206800F580504161012084F844009E
:1021300000BF002084F8450000BF10BD2DE9FC4120
:1021400004460025002001909D4E0027804614B9CA
:102150000120BDE8FC8194F8440028B9002084F8EF
:102160004500204600F03AF900BF00200090954855
:10217000006840F48040934908600846006800F415
:102180008040009000BF00BF8F48006820F400002E
:102190008D49086008460068216A08438A4908603A
:1021A000206800F58050006840F00101206800F5CB
:1021B0008050016000F0A8FC07460FE000F0A4FC8E
:1021C000C01BB0F5FA7F09D9032084F8440000BF92
:1021D000002084F8450000BF0320BAE7206800F51E
:1021E0008050006800F001000028E7D120680569F0
:1021F00025F01C0500F046FE06467448864205D3CD
:102200007348864202D245F008051AE070488642BB
:1022100005D36B48864202D245F00C0511E06848B0
:10222000864203D36B48864200D20AE06948864260
:1022300005D36948864202D245F0040501E045F025
:102240001005206805614FF400420021204600F08F
:10225000F7FA48B14FF0010841462046FFF73EF833
:10226000012084F8440074E7FF20FFF77BFD6068DD
:10227000002871D000F048FC074600BF01AA0121E8
:10228000204600F097F900F03FFCC01B41F2883176
:1022900088420FD94FF0010841462046FFF71EF84B
:1022A000012084F8440000BF002084F8450000BFEE
:1022B00003204EE7019800F004000428DED18202DA
:1022C0000021204600F0BCFA48B14FF00108414619
:1022D0002046FFF703F8012084F8440039E700F0B6
:1022E00013FC074600BF01AA0121204600F062F955
:1022F00000F00AFCC01B41F2883188420FD94FF030
:10230000010841462046FEF7E9FF012084F8440019
:1023100000BF002084F8450000BF032019E70198A2
:1023200000F020002028DED101AA1021204600F074
:1023300041F948B14FF0010841462046FEF7CEFF73
:10234000012084F8440004E7019800F0040020B163
:102350004FF40061E16002E00DE00021E1600198CE
:1023600000F00200022802D10021A1601EE04FF41B
:102370008041A1601AE0E068C0F3CF00A168C1F31A
:102380004F0140EA01020021204600F059FA48B10D
:102390004FF0010841462046FEF7A0FF012084F8D7
:1023A0004400D6E640F6FF70FFF7DCFC41462046CD
:1023B000FEF794FF012084F844000020C9E60000E5
:1023C000008793034438024004380140002D310156
:1023D000C00E160200E1F50580D1F00810B586B0F8
:1023E000044600BF002000906B48006840F00100E8
:1023F000694908600846006800F00100009000BFCD
:1024000000BF00BF002000900846006840F00200B6
:1024100008600846006800F00200009000BF00BF9E
:1024200000BF002000900846006840F004000860EB
:102430000846006800F00400009000BF00BF00BF25
:10244000002000900846006840F020000860084620
:10245000006800F02000009000BF00BF00BF002017
:1024600000900846006840F0400008600846006898
:1024700000F04000009000BF00BF00BF00200090AF
:102480000846006840F0800008600846006800F0D8
:102490008000009000BF00BF00BF002000900846F1
:1024A000006840F4807008600846006800F480709E
:1024B000009000BF00BF86200190032004900220FE
:1024C0000290002003900B20059001A9334800F0F2
:1024D00015FA4FF49070019001A9314800F00EFAFE
:1024E0003E20019001A92F4800F008FA4FF4D04097
:1024F000019001A92C4800F001FACC20019001A91B
:102500002A4800F0FBF94FF48060019001A92848A7
:1025100000F0F4F9002207213D2000F07CFB3D2073
:1025200000F069FB00BF00BF002000901A4800685F
:1025300040F00070184908600846006800F000701C
:10254000009000BF00BF00BF002000900846006858
:1025500040F0806008600846006800F080600090ED
:1025600000BF00BF00BF002000900846006840F098
:10257000006008600846006800F00060009000BF3E
:1025800000BF00BF206A28B900224FF48001104626
:1025900000F0F6FC06B010BD3038024000000240EA
:1025A000000402400008024000180240001C0240E3
:1025B000002002402DE9F04104460E461746002552
:1025C000A84694F84400822802D10220BDE8F08198
:1025D000822084F844002068056905F01C05208AE3
:1025E0004FF4784101EAC0200543481100EA861003
:1025F000054325F0020545F001052068056100F05E
:1026000083FA804612E000F07FFAA0EB0800B0F5F4
:10261000803F09D3012084F8440000BF002084F8E3
:10262000450000BF0320D1E72068056905F00100DF
:102630000028E8D12068406980B23860012084F821
:1026400044000020C2E7000010B5044602480068BC
:102650000BF0EEFB10BD00001401001010B5044695
:1026600000BF94F84500012801D1022010BD0120CF
:1026700084F8450000BF022084F844002046FEF79D
:102680008BFF2046FEF760FF2046FEF7E9FD20465F
:10269000FEF7C7FD2046FEF7AEFD012084F844009A
:1026A00000BF002084F8450000BF00BFDEE710B582
:1026B000044600BF94F84500012801D1022010BD56
:1026C000012084F8450000BF022084F84400204621
:1026D000FEF79CFD2046FEF783FD2046FEF720FF17
:1026E0002046FEF7BDFD2046FEF742FF012084F89C
:1026F000440000BF002084F8450000BF00BFDEE7B3
:1027000070B5024600230025002400BF92F8450062
:10271000012801D1022070BD012082F8450000BFD0
:10272000022082F8440049B9012082F8440000BF29
:10273000002082F8450000BF0120ECE7D06A006865
:1027400000F0004048B1122082F8440000BF002091
:1027500082F8450000BF0120DDE740F2F4508142DD
:1027600008D9B1FBF0F3B1FBF0F600FB161010B185
:102770005B1C00E00123012B13D1D06A006840F0FC
:102780004050D66A3060C1F30C00D66A7060D06ADF
:10279000006840F00040D66A3060D06AC068D062FD
:1027A00032E000242EE0D06A006820F04050D66A63
:1027B00030602CB9D06A006840F08050D66A306032
:1027C00040F2F450D66A7060581EA04210D1D06A10
:1027D000006840F00050D66A3060581EC0EBC01050
:1027E00000EB4000A1EB8005C5F30C00D66A7060D9
:1027F000D06A006840F00040D66A3060D06AC06895
:10280000D062641C9C42CED3106800F580504069B1
:1028100000F0040048B10426106800F580504661BD
:102820000026106800F580504660012082F84400C0
:1028300000BF002082F8450000BF00BF6BE7704773
:102840002DE9F04104460E4617460025A84694F8A7
:102850004400422802D10220BDE8F081422084F8E1
:1028600044002068056905F01C05208A4FF4784172
:1028700001EAC0200543481100EA8610054345F0EF
:10288000020545F00105B8B221684861206805617C
:1028900000F03AF9804612E000F036F9A0EB0800AB
:1028A000B0F5803F09D3012084F8440000BF002028
:1028B00084F8450000BF0320CEE72068056905F0D5
:1028C00001000028E8D1012084F844000020C3E77B
:1028D00010B50446B4F5004F01D102F0F1FA10BD75
:1028E00010B5044604480068204020B10248046046
:1028F0002046FFF7EDFF10BD143C0140F8B502463D
:102900000B460025002400200021DCE0012606FA09
:1029100001F51E6806EA0504AC4273D15E68012E1B
:1029200008D05E68022E05D05E68112E02D05E6867
:10293000122E13D190684F000326BE40B0434F00C3
:10294000DE68BE4030439060506801268E40B04340
:102950001E79C6F300168E4030435060D0684F0099
:102960000326BE40B0434F009E68BE403043D06057
:102970005E68022E02D05E68122E13D1CF0802F1DB
:10298000200656F827004E07F70E0F26BE40B0432C
:102990004F07FF0E1E69BE403043CF0802F12006EC
:1029A00046F8270010684F000326BE40B0431E794A
:1029B00006F003064F00BE40304310605E6806F02C
:1029C0008056B6F1805F7DD100BF00260096404E54
:1029D000366846F480463E4F3E603E46366806F412
:1029E0008046009600BF00BF3A4E8F0856F8270079
:1029F0008E07370F0F26BE40B043374EB24202D18A
:102A0000002624E05EE0354EB24201D101261EE0F0
:102A1000334EB24201D1022619E0324EB24201D108
:102A2000032614E0304EB24201D104260FE02F4EAF
:102A3000B24201D105260AE02D4EB24201D106264E
:102A400005E02C4EB24201D1072600E008268F0790
:102A50003F0FBE4030431F4E8F0846F82700264EDA
:102A60003068A0435E6806F48036B6F5803F00D13A
:102A70002043214E3060361D3068A0435E6806F466
:102A80000036B6F5003F00D120431B4E361D3060A6
:102A9000361D3068A0435E6806F48016B6F5801FC8
:102AA00000D12043144E08363060361D3068A043F4
:102AB0005E6806F40016B6F5001F00D120430E4EE6
:102AC0000C363060491C1029FFF420AFF8BD00001F
:102AD000443802400838014000000240000402402F
:102AE00000080240000C02400010024000140240A6
:102AF00000180240001C0240003C014001480068F0
:102B0000000C7047002004E0014800687047000096
:102B1000040000200348006803490978084401497B
:102B200008607047040000200C00002010B50A481F
:102B3000006840F40070084908600846006840F4E6
:102B400080600860032000F0A5F80F2000F006F870
:102B500000F050F8002010BD003C0240F0B587B0F6
:102B600005460026002700222946362000F053F8AB
:102B7000362000F040F800BF00200090194800689F
:102B800040F01000174908600846006800F0100087
:102B9000009000BF00BF01A902A800F051F9059EF6
:102BA0001EB900F075F9044602E000F071F9440026
:102BB0000D48B4FBF0F0471E0C480D49086040F288
:102BC000E7310B48C160476000210161816081618C
:102BD00000F0A9FC20B9064800F0C0FC07B0F0BD29
:102BE0000120FBE74038024040420F000010004047
:102BF000BCCD0020704701460846002809DB00F0E4
:102C00001F0301229A4043099B0003F1E023C3F80C
:102C1000002100BF70472DE9F05F80460D46164643
:102C2000002703F035F8074639462A46334601F0B7
:102C30000700C0F1070ABAF1040F02D94FF0040AE5
:102C400001E0C0F1070AD14600F1040ABAF1070F0A
:102C500002D24FF0000A01E0A0F1030AD4464FF07F
:102C6000010A0AFA09FAAAF1010A0AEA020A0AFAA8
:102C70000CFA4FF0010B0BFA0CFBABF1010B0BEA5A
:102C8000030B4AEA0B042146404603F009F8BDE86D
:102C9000F09F000000BF00F00702064B19684FF6D6
:102CA000FF031940044B0B4343EA0221014B196017
:102CB00000BF70470CED00E00000FA0570B5044657
:102CC0000D460CB9012070BD5848006800F00F0097
:102CD000A84209D255490D700846006800F00F005F
:102CE000A84201D00120EEE7207800F0020002287F
:102CF0001DD1207800F00400042805D14C4800685C
:102D000040F4E0504A490860207800F008000828A4
:102D100005D14748006840F4604045490860444890
:102D2000006820F0F000A16808434149086020785D
:102D300000F00100A8B36068012807D13C480838BA
:102D40000068C0F34040B8B90120BCE760680228C1
:102D500002D06068032807D1354808380068C0F3FE
:102D6000406048B90120AEE7314808380068C0F338
:102D7000400008B90120A6E72D48006820F00300B4
:102D8000616808432A490860FFF7BEFE064609E06D
:102D9000FFF7BAFE801B41F28831884202D9032036
:102DA00091E707E02248006800F00C006168B0EB92
:102DB000810FEDD11D48006800F00F00A84209D92D
:102DC0001A490D700846006800F00F00A84201D0B3
:102DD000012078E7207800F00400042807D1144887
:102DE000006820F4E050E168084311490860207849
:102DF00000F00800082808D10D48006820F4604061
:102E0000216940EAC1000A49086000F061F80849F8
:102E10000968C1F30311074A515CC84006490860BC
:102E200006480068FFF79AFE00204CE7003C02408D
:102E300008380240649801080000002008000020C3
:102E40000F2202600D4A126802F0030242600B4A30
:102E5000126802F0F0028260084A126802F4E0523E
:102E6000C260064A126802F46042D2080261044A53
:102E7000126802F00F020A60704700000838024032
:102E8000003C02400148006870470000000000203C
:102E900000B5FFF7F7FF04490968C1F38221034A2F
:102EA000515CC84000BD0000083802407498010819
:102EB00000B5FFF7E7FF04490968C1F34231034A4F
:102EC000515CC84000BD00000838024074980108F9
:102ED0002DE9F047002400250026A146254800687A
:102EE00000F00C0020B1042805D008283AD105E0F4
:102EF000DFF8849039E0DFF8849036E01D48001F49
:102F0000006800F03F041B48001F006800F48000C8
:102F100078B11A481749091F0968C1F38811A0FB45
:102F200001700146224600233846FDF7A9F90546FF
:102F30000EE011480F49091F0968C1F38811A0FB71
:102F400001700146224600233846FDF799F90546EF
:102F50000848001F0068C0F30140401C4600B5FB54
:102F6000F6F902E0DFF8109000BF00BF4846BDE868
:102F7000F0870000083802400024F40000127A00B4
:102F800070B586B006460C46154646BB00BF00200D
:102F900000902848006840F0010026490860084673
:102FA000006800F00100009000BF00BF881501908C
:102FB000022002900320049000200390059001A9B4
:102FC0001D48FFF79BFC1B482838006820F0EC6088
:102FD00044EA0501084317492839086027E000BF83
:102FE000002000901348006840F004001149086078
:102FF0000846006800F00400009000BF00BF4815BC
:10300000019002200290032004900020039005907C
:1030100001A90A48FFF772FC06482838006820F02A
:10302000784044EAC501084302492839086006B0DF
:1030300070BD00003038024000000240000802402D
:10304000F8B504460CB90120F8BD207800F0010065
:10305000002874D0F948006800F00C0004280DD056
:10306000F648006800F00C00082813D1F348001F50
:10307000006800F48000B0F5800F0BD1EF480838ED
:103080000068C0F34040002859D06068002856D13D
:103090000120D9E700BF6068B0F5803F08D1E7485C
:1030A0000838006840F48030E449083908601EE0C0
:1030B0006068B0F5A02F0DD1E0480838006840F4F2
:1030C0008020DE49083908600846006840F48030F6
:1030D00008600CE0D9480838006820F48030D749EF
:1030E000083908600846006820F48020086000BFA6
:1030F000606890B1FFF708FD054606E0FFF704FDA4
:10310000401B642801D903209EE7CC48083800689A
:10311000C0F340400028F1D011E0FFF7F5FC054670
:1031200006E0FFF7F1FC401B642801D903208BE780
:10313000C24808380068C0F340400028F1D1207828
:1031400000F0020002285FD1BC48006800F00C00CB
:1031500058B1BA48006800F00C0008281CD1B748E4
:10316000001F006800F48000B0B9B4480838006857
:10317000C0F3400020B1E068012801D0012063E7DE
:10318000AE480838006820F0F800216940EAC10024
:10319000AA490839086037E0E06800B30120A8496F
:1031A0000860FFF7B1FC054606E0FFF7ADFC401BE9
:1031B000022801D9032047E7A04808380068C0F377
:1031C00040000028F1D09D480838006820F0F80041
:1031D000216940EAC10099490839086014E00020DB
:1031E00097490860FFF790FC054606E0FFF78CFC66
:1031F000401B022801D9032026E7904808380068C0
:10320000C0F340000028F1D1207800F00800082821
:103210002CD16069A8B101208A490860FFF774FCCD
:10322000054606E0FFF770FC401B022801D9032089
:103230000AE782486C300068C0F340000028F1D0F3
:1032400014E000207F490860FFF75EFC054606E0B9
:10325000FFF75AFC401B022801D90320F4E6774807
:103260006C300068C0F340000028F1D1207800F0F5
:103270000400042870D1002770483830006800F03E
:10328000805090B900BF002000906C483830006832
:1032900040F080506949383108600846006800F005
:1032A0008050009000BF00BF01276748006800F40D
:1032B0008070B0B96448006840F48070624908606A
:1032C000FFF722FC054606E0FFF71EFC401B022824
:1032D00001D90320B8E65C48006800F4807000283B
:1032E000F2D000BFA068012808D1544868300068B7
:1032F00040F001005149683108601DE0A0680528D0
:103300000DD14E486830006840F004004B496831E8
:1033100008600846006840F0010008600CE047487B
:103320006830006820F001004449683108600846B0
:10333000006820F00400086000BFA068A8B1FFF793
:10334000E3FB054609E0FFF7DFFB401B41F2883154
:10335000884202D9032077E626E0384868300068C2
:10336000C0F340000028EED013E0FFF7CDFB054688
:1033700008E0FFF7C9FB401B41F28831884201D9C0
:10338000032061E62D4868300068C0F34000002843
:10339000EFD1012F07D129483830006820F0805044
:1033A00026493831086000BFA069002845D023486D
:1033B000006800F00C0008285DD0A069022845D103
:1033C00000201F490866FFF79FFB054606E0FFF750
:1033D0009BFB401B022801D9032035E6174808381B
:1033E0000068C0F340600028F1D1D4E90701084328
:1033F000616A40EA81110122A06AC2EB500041EAF1
:1034000000412C20005D41EA00600C49091F086062
:1034100001200B490866FFF777FB054606E0FFF73A
:1034200073FB401B022801D903200DE6034808382E
:103430000068C0F340600028F1D03FE00838024047
:1034400000004742800E47420070004000201C49A7
:103450000866FFF759FB054606E0FFF755FB401BE2
:10346000022801D90320EFE516480068C0F3406048
:103470000028F2D122E0A069012800D1E4E511483A
:10348000001D066806F48001E069814214D106F04F
:103490003F01206A81420FD147F6C0703040616A17
:1034A000884209D106F44031A06A814204D106F075
:1034B0007061E06A814201D00120C5E50020C3E5CA
:1034C000000047420038024070B504460E461546DB
:1034D0000CB9012070BD94F8490028B9002084F887
:1034E0004800204600F01CF804F108012068FEF7AF
:1034F00081F93146A2682068FEF7AAF92946236BB4
:10350000D4E90102FEF752F9A168206850F82100C1
:1035100040F00100A268216841F822000020D9E7AC
:1035200070477047704710B504460CB9012010BDB4
:1035300094F83D0028B9002084F83C00204600F0B3
:103540000CF8022084F83D00211D206801F0F0FBFA
:10355000012084F83D000020E9E770470146086833
:10356000C06840F001000B68D8600868806800F00F
:103570000702062A05D00868006840F001000B68C1
:10358000186000207047704710B504462068006935
:10359000C0F34000D8B12068C068C0F34000B0B1AB
:1035A0006FF002002168086101202077206880699F
:1035B00000F0030018B12046FFF7E5FF05E02046C4
:1035C00000F0ADF8204600F0ABF80020207720682E
:1035D0000069C0F38000D8B12068C068C0F38000E3
:1035E000B0B16FF0040021680861022020772068E4
:1035F000806900F4407018B12046FFF7C4FF05E071
:10360000204600F08CF8204600F08AF80020207751
:1036100020680069C0F3C000D8B12068C068C0F35A
:10362000C000B0B16FF00800216808610420207765
:103630002068C06900F0030018B12046FFF7A3FF1F
:1036400005E0204600F06BF8204600F069F8002005
:10365000207720680069C0F30010D8B12068C068E6
:10366000C0F30010B0B16FF01000216808610820AD
:1036700020772068C06900F4407018B12046FFF739
:1036800082FF05E0204600F04AF8204600F048F8A6
:10369000002020772068006900F0010058B1206800
:1036A000C06800F0010030B16FF0010021680861CE
:1036B000204600F036F820680069C0F3C01058B109
:1036C0002068C068C0F3C01030B16FF0800021687E
:1036D00008612046FFF725FF20680069C0F38010CD
:1036E00058B12068C068C0F3801030B16FF040005E
:1036F00021680861204600F019F820680069C0F3CD
:10370000401058B12068C068C0F3401030B16FF06D
:103710002000216808612046FFF704FF10BD7047B4
:10372000704710B50446FFF7F5F910BD70477047B4
:103730002DE9F0470446206805682068C6682068BF
:1037400047694FF00008C14605F00F08B8F1000FB7
:103750000AD105F0200038B106F0200020B1204643
:1037600001F0ECFEBDE8F087B8F1000F72D007F071
:10377000010018B906F4907000286BD005F0010024
:1037800030B106F4807018B1E06B40F00100E063E6
:1037900005F0040030B107F0010018B1E06B40F013
:1037A0000200E06305F0020030B107F0010018B13B
:1037B000E06B40F00400E06305F0080048B106F05B
:1037C000200010B907F0010018B1E06B40F00800CC
:1037D000E063E06B70B305F0200028B106F0200034
:1037E00010B1204601F0AAFE20684069C0F380199C
:1037F000E06B00F0080010B9B9F1000F23D02046AB
:1038000001F07CFE2068406900F04000402816D19D
:103810002068406920F0400021684861606B50B129
:103820001748616B0865606BFEF787FA10B1606B33
:10383000016D88470CE02046FFF779FF08E020463D
:10384000FFF775FF04E02046FFF771FF0020E063FB
:1038500088E7FFE705F0800030B106F0800018B17E
:10386000204602F0B3F87DE705F0400030B106F0E5
:10387000400018B1204601F051FE73E700BF71E728
:10388000E954000810B504460CB9012010BDA06928
:1038900000B100E000BF94F8390028B9002084F896
:1038A0003800204600F027F8242084F839002068EA
:1038B000C06820F400502168C860204601F092FEE4
:1038C0002068006920F49040216808612068406900
:1038D00020F02A00216848612068C06840F4005048
:1038E0002168C8600020E063202084F8390084F853
:1038F0003A000020CAE7704710B5034693F83A0033
:1039000020282FD101B10AB9012010BD00BF93F8C2
:103910003800012801D10220F7E7012083F83800A0
:1039200000BF99629A85DA850020D863222083F847
:103930003A0000BF002083F8380000BF1868C06854
:1039400040F480701C68E0601868406940F0010035
:103950001C6860611868C06840F020001C68E06066
:103960000020D2E70220D0E710B5044615480078C1
:103970001549164A12688854012212491448FFF763
:10398000BBFF12480068401C1049086008460068E8
:10399000B0F5007F01DB002008600C4800680D498D
:1039A0000968884207D101200B49087000200749A7
:1039B00008600849086009480168012000F0EAFF32
:1039C00010BD00005C010010F03901205001001012
:1039D000B03901204C0100105401001058010010B2
:1039E000704700BFFEE7000010B50448007820B91A
:1039F000012002490870FDF717FE10BD38000020B5
:103A000010B50446E0B2FDF7CDFEFDF7C3FE10BDD4
:103A10002DE9F04104460D462746002604E038888B
:103A2000FDF7BCFEBF1CB61CAE42F8D3BDE8F0816A
:103A300010B504462046FDF7B5FE10BD00BFFEE7F9
:103A40007047000000B58DB000200C900B900A90DC
:103A50001C481D4900220AABCDE9002102900BAAA7
:103A60000CA91A4809F05EFC184809F0E1FE174855
:103A700090F83100C0F3800018B114480AF02EF815
:103A800002E0124809F0DAFE1149104809F042FF3D
:103A900000200990012109A80AF0A4F90D49086045
:103AA0000A480D4908600B480068486014220B4919
:103AB00004A8FCF729FC084904A80AF01DFA0DB077
:103AC00000BD0000016B0108858F0008A01F0010D9
:103AD00051910008FC0000100001001048D70108B7
:103AE0000FB438B59DF8100000F00F0023490968A5
:103AF00088420AD121480068401C204908600846D5
:103B0000007800F00F0008600CE09DF8100000F055
:103B10000F052A461948016819A002F095F8681C9B
:103B200016490860012420E004A8005D1D491E4AD2
:103B3000126888541C480068401C1B4908601B48D8
:103B40000068401E194908600846006860B9942062
:103B500000901548DDE907230168124801F09AFB3F
:103B600000201149086004E0641C9DF81800A04280
:103B7000DADC00BF38BC5DF814FB0000CC0100208B
:103B8000457870656374656420532F4E203D203066
:103B90007825782E2050726F7669646564203078BD
:103BA00025780A0008340010C4010020C801002054
:103BB0000246002107E0074850F82100904201D159
:103BC00001207047491C044800688142F3D300205B
:103BD000F7E70000AC010020C00100200FB438B5A9
:103BE00000F0C2F89DF811009DF8101001F00F01CF
:103BF00040EA0120174908600120174908600224A3
:103C000020E004A8005D1549154A1268885414483C
:103C10000068401C124908600E480068401E0D49AB
:103C200008600846006860B9942000900C48DDE9FF
:103C300007230168094801F02DFB002008490860AE
:103C400004E0641C9DF81800A042DADC00BF38BC18
:103C50005DF814FBC8010020CC01002008340010DE
:103C6000C40100200FB438B50798FFF7A1FF18B9B9
:103C7000002038BC5DF814FB9DF8180008B900203E
:103C8000F7E79DF81000041134B1012C0BD0022C81
:103C900010D0032C16D114E00898009004A80FC887
:103CA00000F02EF813E00898009004A80FC8FFF762
:103CB00095FF0CE00898009004A80FC8FFF710FFCC
:103CC00005E004E003A001F0BFFF0020D1E700BF42
:103CD0000120CEE749534F31353736353A20496E0A
:103CE00076616C696420504349206279746520775D
:103CF00061732070726F7669646564210000000052
:103D00000FB438B500F030F89DF8100000F00F0542
:103D10009DF81800401EA84202DA38BC5DF814FB7A
:103D200001240BE004A8005D0D490E4A1268885476
:103D30000C480068401C0B490860641C681C8442E5
:103D4000F0DB942000900748DDE907230168044870
:103D500001F0A0FA00200349086000BFDDE7000081
:103D600008340010C401002010B50848006860B194
:103D700006480168064801F067FF0648016806A08A
:103D800001F062FF00200149086010BDC40100205D
:103D900034DC0108C8010020446174616772616D00
:103DA000206973207374696C6C206D697373696E1C
:103DB00067203078257820627974657320746F20CD
:103DC000626520636F6D706C657465002DE9F84362
:103DD00005460F4635B114A001F036FF29460020F4
:103DE00000F01CF900262C4608E01548005D154936
:103DF0008855002012490855761C641CBC42F4D139
:103E0000012000F0D9FDFDF745FD80469120434695
:103E10000022314600900B4801F03CFA00200A498C
:103E20000860BDE8F883000049534F313432333025
:103E300020637261702062797465733A200000001B
:103E4000F03C0120F03E0120640100102DE9F84310
:103E50000746884637B11EA001F0F6FE394600201D
:103E600000F0DCF8002400263D461CE0304606EB5E
:103E7000D0714910A6EB410181B91A48405D1A4939
:103E80000855022C09D10846005D062805D117A067
:103E900001F0DAFE00201F490870641C002011495F
:103EA0004855761C6D1C4545E0D1012000F084FD8D
:103EB000FDF7F0FC814692204B46002221460090FF
:103EC000094801F0E7F9002013490860BDE8F883CC
:103ED0004B573132383120637261702062797465DA
:103EE000733A2000F03C0120F03E01204B4C494E3B
:103EF00045206275732072657365742066726F6DFC
:103F0000204B573132383120636F6D6D616E640A1A
:103F10000000000060010010640100101CB50446A0
:103F20002D482E49096844542C480068401C2B49F0
:103F3000086008460068B0F5007F0ED128A001F0A7
:103F400083FE26480068411E002000F067F800202C
:103F500022490860284908701CBDFDF79BFC2749D1
:103F600008602548007820B1012819D002282BD1FB
:103F700020E0694601A800F00BF920B1DDE900104E
:103F8000FFF724FF0BE0694601A800F061F830B1AB
:103F9000012019490870DDE90010FFF717FF17E04D
:103FA000694601A800F054F818B1DDE90010FFF7E8
:103FB0000DFF0DE0694601A800F056F918B1DDE9E2
:103FC0000010FFF743FF03E00DA001F03DFE00BF2E
:103FD00000BF0120C0E70000F03C01206401001098
:103FE0004B4C494E4520627566666572206F76655A
:103FF00072666C6F773A2000600100106801001053
:104000004B4C494E453A20556E6B6E6F776E207063
:10401000726F746F636F6C0A0000000070B5054624
:104020000E462C4608E00748015D07A001F00CFE93
:10403000002004490855641CB442F4DB03A001F0DD
:1040400003FE70BDF03C0120257820000A0000002E
:104050002DE9F04105460E464FF000080E48006875
:10406000032802D20020BDE8F0810027324629460D
:10407000384600F013F8044614B94FF0010808E080
:10408000022C02D14FF0000803E000200249086032
:1040900080464046E7E70000640100102DE9F04744
:1040A00007468C4690464FF00009394666E0B9F164
:1040B000060F5FD2DFE809F003242B364750CCF817
:1040C0000010012401223048455C465C06F03F03A5
:1040D0003BB11A442D480068824202D90220BDE853
:1040E000F08706F08000802803D1921C4FF0010970
:1040F00005E013B94FF0030901E04FF004093BE07C
:10410000641C2148405C05444FF0020934E0641C03
:104110001D48405C054413B94FF0030901E04FF01E
:10412000040929E0641C1848405C05441648435CB7
:10413000521C1A4415480068824201D90220CEE779
:104140004FF0040918E0641C0F48405C0544944299
:1041500001D14FF005090FE0E8B2DFF82CA01AF802
:1041600001A0504504D1481CC8F800000020B6E763
:104170000120B4E70320B2E700BF491C03480068F0
:10418000814294D30220AAE7F03C01206401001090
:104190002DE9F05F80460F464FF0000AD346002419
:1041A00046E0BAF1050F40D2DFE80AF0030D11171F
:1041B00030002348005D552804D1C8F8004001268E
:1041C0004FF0010A32E04FF0020A761C2EE01C4844
:1041D000055D4FF0030A761C28E01948005DC043D6
:1041E00000F0FF09761CA9450DD1042E0BD18A2DB4
:1041F00006D1022013490870601C38604FF0010B93
:104200004FF0040A01E04FF0000A0FE08F2D07D1B4
:1042100001200C490870601C38604FF0010B03E06E
:10422000294609A001F010FD00E000BF00BF641C9A
:104230000C4800688442B4D35846BDE8F09F0000A3
:10424000F03C012060010010556E6B6E6F776E20A0
:104250004B4C494E452070726F746F636F6C3A20FF
:1042600025780A00640100102DE9F04304460D464C
:10427000002000224FF0030C804600213AE0B8F104
:10428000000F06D0B8F1010F0CD0B8F1020F2ED1FB
:1042900021E0DFF8709019F801304FF0010802B901
:1042A000216025E0DFF85C9019F801906FEA0909B8
:1042B00009F0FF07BB420BD1521C012A00D11E4658
:1042C000B24202D14FF0020804E04FF0000801E0D2
:1042D0000022904600BFDFF82C9019F801306345AA
:1042E00004D101F10109C5F80090012000E000BFF0
:1042F00000BF491CDFF81090D9F800904945BED3A3
:10430000BDE8F083F03C01206401001010B5FDF71A
:10431000C1FA1049096801F6B831884219D90E4826
:10432000006810B90D48007898B10B48006820B1BA
:10433000094801680020FFF771FE00200749087056
:1043400005490860FDF7A6FA0446214604A001F0DD
:104350007BFC10BD680100106401001060010010BA
:104360004B4C494E45205265736574206261636B06
:1043700020746F2064656661756C7420402025642C
:10438000206D730A0000000038B50446104811493A
:10439000096844540F480068401C0E4908600A2C04
:1043A00003D008460068FF2811D300F063FB58B122
:1043B000FDF770FA0546FA202B46002200900548CA
:1043C0000168034800F066FF00200249086038BD1C
:1043D00000400120E00100200FB42DE9F0410998D0
:1043E000B0F5407F09D8099800F47060B0F5007FFF
:1043F00003D19DF82000072804D00020BDE8F0017B
:104400005DF814FB9DF818709DF81960BDF81A400E
:10441000BDF81C502B46224639460DA001F014FC75
:104420000998B0F5007F06D14FF0FF3013490860BE
:10443000134908600AE0D02E08D1104805601048E2
:10444000046000200F4908600F4908700120D5E77B
:10445000454355206174206164647265737320253F
:10446000782E20545849443D7B25787D202F2052BA
:104470005849443D7B25787D0A000000D401002086
:10448000D0010020D8010020DC0100200FB408B5C5
:104490000698009002A80FC8FFF79EFF18B10120F0
:1044A00001B05DF814FB0698009002A80FC800F058
:1044B00005F808B10120F3E70020F1E70FB42DE97A
:1044C000F8430B9E71480068864208D07048006827
:1044D000864204D00020BDE8F8035DF814FB9DF887
:1044E000204004F00F08A92504F0F000A02801D115
:1044F000E5B201E004F0F005302D0ED006DC002D11
:104500004FD0102D34D0202D71D11DE0A42D63D0BB
:10451000A82D62D0B02D6AD15AE09DF828205D49BF
:104520005D4B1B68C81808A9FBF7EEFE9DF8280034
:1045300059490968084458490860012057490870DA
:1045400000205749087053E09DF828104A1E514931
:10455000514B1B68C8180DF12101FBF7D5FE9DF8E2
:104560002800401E4C49096808444B4908603FE058
:104570009DF828104A1E4749474B1B68C8180DF183
:104580002101FBF7C1FE9DF82800401E4249096841
:1045900008444149086001204049087040490870BA
:1045A00026E09DF828104A1E3A493B4B1B68C81864
:1045B0000DF12101FBF7A8FE9DF82800401E3649A9
:1045C00009680844344908600120354908700FE043
:1045D0000020334908700BE000BFA82D05D14FF033
:1045E000FF302B4908602949086001E0FFE700BF60
:1045F00000BF2A480078012845D1274800680328D1
:1046000003D228A001F020FB38E02248407821495D
:10461000097840EA012720480068801EB8421DD072
:1046200087F400411C480068801E814212D11A485C
:104630000068801E18490860932000900846DDE954
:104640000B2301681348801C00F024FE21A001F018
:10465000FBFA12E02BA001F0F7FA0EE00E4800681A
:10466000801E0D490860932000900846DDE90B2369
:1046700001680848801C00F00DFE00BF00200649BC
:10468000086006490870012025E70000D0010020DD
:10469000D4010020F03B0120D8010020DC010020E3
:1046A000DD0100204552524F523A20545032302002
:1046B000446174616772616D20697320736D616C10
:1046C0006C6572207468616E203320627974657342
:1046D0002E0A00005741524E494E473A205450325C
:1046E0003020446174616772616D20686561646542
:1046F0007220737461727473206F6E20307838305A
:1047000030300A004552524F523A20545032302035
:10471000446174616772616D2068617320696E76AF
:10472000616C6964206865616465722E0A0000002E
:1047300010B588B000BF07A8FCF706FC0446032CA0
:1047400003D117A001F080FA24E0079810B302A863
:10475000FCF7B4FB0446022C00D11CE000F096F9F3
:1047600028B10698009002A80FC800F007FE00F0DC
:1047700081F978B10698009002A80FC8FFF772FA85
:1047800000B108E00698009002A80FC8FFF77EFE6F
:1047900000B100E000BF07980028CCD108B010BDE0
:1047A0004552524F523A2043414E2042756666654B
:1047B00072204F766572666C6F770A001CB5FFF742
:1047C000A5FD00BF684601F0E3F90446032C03D1C0
:1047D0000FA001F039FA16E00098A0B101A801F08D
:1047E000A9F90446022C00D10EE000F043F918B1FB
:1047F0009DF80400FFF792FB00F030F918B19DF826
:10480000040000F019FD00BF00980028DAD11CBD9B
:104810004552524F523A20554152542042756666D5
:104820006572204F766572666C6F770A0000000033
:1048300094B0FBF797FF202020494860FCF78EF9E1
:1048400000F0DAF80021084612F052F8FFF7FAF803
:1048500000F00AFD00F07CFD00F0DAFD184801F0E0
:10486000C3F9142217490FA8FBF74EFD14490FA8EE
:1048700009F042FB1422134914310AA8FBF744FD46
:1048800000210AA809F038FB14220E49283105A896
:10489000FBF73AFD002105A809F02EFB1422094977
:1048A0003C316846FBF730FD0021684609F024FBE7
:1048B00000BF002009F038FBFBE70000002004E007
:1048C000A01F0010F8D601080148006870470000DA
:1048D0005001002001480068704700004801002096
:1048E00070B5144B9B685B1C124CA360124B1A6092
:1048F00061B92346D3E90063104C54F820403419C1
:1049000043F100030B4DC5E900430BE0094BD3E92C
:1049100000630B4C54F82040341943F10003054D5B
:10492000C5E9004300F10903064C24682344054C03
:10493000236070BDE81F001044010020FC0000202F
:104940002001002048010020014800687047000055
:10495000F80000200148806870470000E81F001040
:1049600001480068704700005801002001490860B4
:10497000704700005801002000487047F81F0010E1
:1049800010B5044621460248FBF7FDFC10BD0000AF
:10499000F81F001010B5064AD2E90042241842F16F
:1049A0000002034BC3E90042024A116010BD00003F
:1049B000D81F0010F4000020024989680144014A10
:1049C00091607047D81F00100148006870470000D0
:1049D000F00000200148006870470000D81F001058
:1049E0000148806870470000D81F00100148006827
:1049F00070470000F400002010B500210E4A11603D
:104A0000516000201146886000210C4A11605160FD
:104A1000114688600A4908600A4908600A49086026
:104A20000A4908600A490860FCF734FF0949086030
:104A300000200949086010BDD81F0010E81F0010B1
:104A4000F800002044010020480100204C01002013
:104A500050010020540100205C0100200148006842
:104A600070470000640100200149086070470000A1
:104A700064010020014800687047000060010020C8
:104A8000014908607047000060010020014800688B
:104A9000704700005C010020014908607047000079
:104AA0005C0100202DE9F0412DED088BFCF7F2FEB2
:104AB00043490968461A3046FBF74FFD9FED410B0D
:104AC00053EC102BFBF7DAFC41EC190B3F4930C9D2
:104AD00020462946FBF74EFD53EC192BFBF7CEFC85
:104AE00041EC180B0021394A11605160FCF7D2FEED
:104AF000334908609FED360B53EC102B51EC180B2B
:104B0000FBF75EFD1CD034480068FBF726FD41EC46
:104B10001A0B53EC1A2B51EC180BFBF7AFFC41ECC2
:104B2000180B9FED2E0B53EC102B51EC180BFBF7D1
:104B300033FC41EC1A0BFBF729FD2A49086002E01F
:104B40000020284908602848006890B12649096873
:104B5000264A1268881AFBF700FD41EC1B0B53EC48
:104B6000192BFBF78BFC41EC1A0BFBF70FFD2049CF
:104B700008601D4800681D4908601E48D0E9001003
:104B8000002359405840014312D01A48D0E9007020
:104B9000194909687A1A60F100011046FBF7EAFC2E
:104BA00053EC192BFBF76AFCFBF7F0FC1349086088
:104BB0001048006810490860BDEC088BBDE8F08122
:104BC000540100200000000000408F40E81F00104A
:104BD0000000000000000000440100200000000070
:104BE00000005940F8000020480100204C0100203E
:104BF00050010020D81F0010EC000020F000002021
:104C000010B509F071F910BD00B593B000BF0020D8
:104C100001902748006840F0805025490860084608
:104C2000006800F08050019000BF00BF00BF00206E
:104C300001902048006840F480401E490860084602
:104C4000006800F48040019000BF00BF0120029086
:104C500000040390022008904105099108210A915F
:104C60004FF4A8710B9102210C9107210D9102A81C
:104C7000FEF7E6F90F200E9002200F900020109012
:104C80004FF4A05011904FF48050129005210EA8BF
:104C9000FEF714F8FDF732FF41F20101884205D119
:104CA0000548006840F480700349086013B000BDF7
:104CB0004038024000700040003C02401448006848
:104CC00040F47000124908601248006840F001008A
:104CD0001049086000200F49083108600D4800683D
:104CE0000D4908400B4908600C48091D0860081F61
:104CF000006820F48020091F0860002005490C315D
:104D000008604FF000600249803908607047000079
:104D100088ED00E000380240FFFFF6FE103000246E
:104D200010B50248FEF730FC10BD0000BCCD0020DD
:104D300010B50268294B98420ED0B0F1804F0BD0CD
:104D4000274B984208D0274B984205D0264B9842D3
:104D500002D0264B984203D122F070024B681A43CE
:104D60001E4B984220D0B0F1804F1DD01C4B984272
:104D70001AD01C4B984217D01B4B984214D01B4B97
:104D8000984211D01A4B98420ED01A4B98420BD031
:104D9000194B984208D0194B984205D0184B9842AD
:104DA00002D0184B984203D122F44072CB681A43C8
:104DB00022F080034C6943EA040202608B68C362FC
:104DC0000B688362054B984202D0084B984201D190
:104DD0000B6903630123436110BD00000000014023
:104DE0000004004000080040000C004000040140A6
:104DF00000400140004401400048014000180040CC
:104E0000001C00400020004000211B48FBF720FF51
:104E1000044601201949087000201949086000BFA4
:104E20001648007801281ED11649154A126851F813
:104E3000220000F007FE04461248114A126850F89A
:104E40002210224610A000F0FFFE0D480068401C12
:104E50000B49086008460068022801DB0020086052
:104E6000002006490870FFF763FCFFF7A7FC142039
:104E700008F09AFED4E7000020A107006801002096
:104E80006C01002070010020554152542064656679
:104E900061756C7420626175647261746520636809
:104EA000616E67656420746F3A2025643B2053650A
:104EB00074757020726573756C743A2025640A00ED
:104EC00001200149087070476801002092B04FF03E
:104ED000FF3400BF14F07CFA01904FF0000900BFCE
:104EE000102C78D2DFE804F0082530484952616A76
:104EF0007879828B999AA6B2FCF7CCFC4FF47A7140
:104F0000B0FBF1F201FB1207FCF7C4FC4FF47A711D
:104F1000B0FBF1F53C20B5FBF0F8B5FBF0F100FB80
:104F200011552B46424657A102A8009700F09CFE5F
:104F30009FE013F089FC824653464FF4204257A16C
:104F400002A800F091FE94E0FFF70AFD0646032E4A
:104F500009D0304600F072FA8246524659A102A8A2
:104F600000F082FE07E0FFF707FD8246524658A197
:104F700002A800F079FE7CE081E0FFF7EBFC8246BE
:104F8000524658A102A800F06FFE72E0FFF79CFCA9
:104F90004FEA902AFFF79EFC4FEA902B53465A4661
:104FA00055A102A800F060FE63E0FFF7CDFC824649
:104FB000524658A102A800F057FE5AE0FFF7C4FC81
:104FC000484502D9FFF7C0FC81464A4657A102A8CE
:104FD00000F04AFE4DE045E051E0FFF707FD824654
:104FE000524659A102A800F03FFE42E0FFF7F8FC4C
:104FF000824652465AA102A800F036FE39E0FFF779
:10500000E3FC8346FFF7E6FC4FEA902A5B465246F4
:1050100059A102A800F028FE2BE030E0FFF71EFDAA
:10502000834600F043FA824652465AA102A800F095
:105030001BFE1EE0FFF72AFD834600F037FA82468A
:1050400052465AA102A800F00FFE12E0FFF712FD2F
:10505000834600F02BFA824652465AA102A800F07D
:1050600003FE06E04FF0FF34642101A813F0CCF9F1
:1050700005E000BFA0B202A9FBF776FC00BF641CEC
:105080002EE7000054696D65203A2025643A2530EA
:1050900032642E25303364202020000052414D2000
:1050A000486561703A20546F74616C202564205B00
:1050B000425D2046726565202564205B425D2020AC
:1050C00020000000444843503A20257300000000AF
:1050D000495020616464726573733A2025732020FF
:1050E0002000000043414E3A205258204D73677310
:1050F000202564202000000043414E3A20525820D1
:105100002564206B423B20202564206B4270732075
:105110002020000043414E20427573204C6F616493
:105120003A202564202525202000000043414E2000
:10513000427573205065616B204C6F61643A202585
:1051400064202525202000004B4C494E453A204242
:105150006175647261746520256420200000000080
:105160004B4C494E453A205258204672616D65734A
:1051700020256420200000004B4C494E453A205227
:1051800058202564206B423B202025642042707308
:1051900020202000544350204B4C494E4520524182
:1051A000573A20202573202000000000544350204F
:1051B000536F636B65742043414E3A202573202062
:1051C0000000000054435020446174616772616DB7
:1051D000733A2020257320200000000010B5FBF753
:1051E00025FC40B9FBF750FB0020FBF70BFB04A0AC
:1051F00000F02AFD02E007A000F026FD10BD00002F
:105200004C43443A20496E69742073756363657337
:10521000730A00004C43443A20496E6974204641A9
:10522000494C45440A00000000BFFFF73BFC4FF427
:105230007A7008F0B9FCF8E70849094A12688854FE
:1052400007490968491C064A116011460968FF2987
:1052500002DB0121034A117070470000084400106E
:105260006C0100107001001008B504204FF4FA73AF
:1052700000220349009003A00AF00EFF08BD0000C1
:10528000056E01087463706B6C696E655F7468729B
:10529000656164002DE9F04706460C4617469846BE
:1052A000DDF820902648006800EB8000254901EBDE
:1052B000800080F810902248006800EB800001EB2D
:1052C000800087601E48006800EB800001EB8000D2
:1052D000C0F80C801A48006800EB800001EB8000E9
:1052E000446020460AF0EAFA1549096801EB810199
:1052F000144A42F82100002509E0705D1049096850
:1053000001EB81010F4A52F8211048556D1CA5424E
:10531000F3D30B480068401C094908600846006840
:10532000202801DB0020086005480068064909685C
:10533000884202D1012005490870BDE8F0870000CD
:1053400034010010080F0120300100103801001056
:1053500008B504204FF4FA7300220349009003A01B
:105360000AF09AFE08BD0000597201087463707754
:10537000737261775F746872656164000FB49DF841
:1053800008101F4A126802EB82021E4B03EB8202D6
:1053900011721B4A0399126802EB820203EB82022C
:1053A000D160174A0499126802EB820203EB820271
:1053B000116100200AE01DF80010114A126802EB8A
:1053C0008202104B03EB82021154401C9DF808101E
:1053D0008142F0DC0A490968491C094A11601146FA
:1053E0000968FF2901DB0021116005490968064AA7
:1053F0001268914202D10121044A117004B0704731
:10540000A40100201C200010A0010020A801002001
:1054100008B504204FF4FA7300220349009003A05A
:105420000AF03AFE08BD0000A170010874637077AD
:105430007363616E5F74687265616400014606297A
:1054400010D2DFE801F0030507090B0D06A0704735
:1054500006A0FCE707A0FAE70BA0F8E70DA0F6E727
:105460000EA0F4E710A0F2E74F6666005374617275
:105470007400000057616974696E67206F6E20497F
:10548000502E2E2E00000000495020617373696772
:105490006E65640054696D656F7574004C696E6B60
:1054A00020446F776E2100003F3F3F00014611B15D
:1054B000012904D101E003A0704706A0FCE709A080
:1054C000FAE70000446973636F6E6E656374656428
:1054D00000000000436F6E6E6563746564202020D9
:1054E000000000003F3F3F0070B50546AC6B002058
:1054F000E085E0842046FEF71AF970BD0168C968AE
:1055000021F490710268D1600168496921F00101BC
:1055100002685161202180F83A10704710B50446A6
:105520002068C06820F040002168C860202084F80E
:1055300039002046FEF754FA002010BD70B504462D
:1055400094F83A0022284AD1A068B0F5805F13D1C0
:10555000A56A206940B920684068C0F30800288027
:10556000A06A801CA06219E020684068C0B2288050
:10557000A06A401CA06211E0206938B92068406828
:10558000C1B2A26A501CA062117007E02068406896
:1055900000F07F01A26A501CA0621170E08D401ED5
:1055A00080B2E085C8B92068C06820F0200021687A
:1055B000C8602068C06820F480702168C8602068D6
:1055C000406920F0010021684861202084F83A00F9
:1055D0002046FEF7C9F9002070BD0020FCE702203C
:1055E000FAE700002DE9F84F04462068006920F42E
:1055F0004050E1680843216808612169A0680843B8
:1056000061690843E169084300902068C06849F275
:105610000C618843009908432168C860206840698C
:1056200020F44070A169084321684861E069B0F541
:10563000004F75D1E3492068884203D0E2492068D1
:1056400088426FD1FDF734FC814602206168A0FBDF
:1056500001510B461920A9FB00712A463846FAF77A
:105660000FFE6421B0FBF1F04FEA001A02206168DE
:10567000A0FB01510B461920A9FB00712A463846B0
:10568000FAF7FEFD074602206168A0FB01510B46B8
:105690001920A9FB00B12A465846FAF7F1FD64210A
:1056A000B0FBF1F000EBC00101EB0010A7EB8000B4
:1056B000322101EBC0006421B0FBF1F000F0F800F2
:1056C0000AEB400A02206168A0FB01510B46192039
:1056D000A9FB00712A463846FAF7D2FD0746022098
:1056E0006168A0FB01510B461920A9FB00B12A46B5
:1056F0005846FAF7C5FD6421B0FBF1F000EBC0019C
:1057000001EB0010A7EB8000322101EBC000642107
:10571000B0FBF1F000F007005044216888604FE1D1
:105720006EE0FFE7FDF7B4FB814602206168A0FB55
:1057300001510B461920A9FB00712A463846FAF799
:105740009FFD6421B0FBF1F04FEA001A022061686E
:10575000A0FB01510B461920A9FB00712A463846CF
:10576000FAF78EFD074602206168A0FB01510B4647
:105770001920A9FB00B12A465846FAF781FD642199
:10578000B0FBF1F000EBC00101EB0010A7EB8000D3
:10579000322101EBC0006421B0FBF1F000F0F80011
:1057A0000AEB400A02206168A0FB01510B46192058
:1057B000A9FB00712A463846FAF762FD0746022027
:1057C0006168A0FB015003461920A9FB00B12A46DD
:1057D0005846FAF755FD6421B0FBF1F000EBC0012B
:1057E00001EB0010A7EB8000322101EBC000642127
:1057F000B0FBF1F000F00700504421688860DFE062
:1058000070492068884203D06F49206888426BD174
:10581000FDF74EFB814604206168A0FB01510B4659
:105820001920A9FB00712A463846FAF729FD82465D
:1058300004206168A0FB01510B461920A9FB0071EF
:105840002A463846FAF71CFD6421B0FBF1F000EB64
:10585000C00101EB0010AAEB8000322101EB001027
:105860006421B0FBF1F000F0F00A04206168A0FBB5
:10587000015003461920A9FB00712A463846FAF761
:10588000FFFC6421B0FBF1F00AEB001A0420616810
:10589000A0FB01510B461920A9FB00712A4638468E
:1058A000FAF7EEFC074604206168A0FB01500346AE
:1058B0001920A9FB00B12A465846FAF7E1FC6421F9
:1058C000B0FBF1F000EBC00101EB0010A7EB800092
:1058D000322101EB00106421B0FBF1F000F00F0069
:1058E0005044216888606BE0FDF7D2FA81460420BD
:1058F0006168A0FB015003461920A9FB00712A46EC
:105900003846FAF7BDFC824604206168A0FB0150CE
:1059100003461920A9FB00712A463846FAF7B0FC65
:105920006421B0FBF1F000EBC00101EB0010AAEB29
:105930008000322101EB00106421B0FBF1F000F097
:10594000F00A04206168A0FB015003461920A9FB5E
:1059500000712A463846FAF793FC6421B0FBF1F057
:105960000AEB001A04206168A0FB017003461920AD
:10597000A9FB005001463A462846FAF781FC074643
:1059800004206168A0FB015003461920A9FB00B167
:105990002A465846FAF774FC6421B0FBF1F000EB9C
:1059A000C00101EB0010A7EB8000322101EB0010D9
:1059B0006421B0FBF1F000F00F00504421688860D2
:1059C000BDE8F88F0010014000140140014691F835
:1059D000390021282CD18868B0F5805F0FD10A6A80
:1059E0001088C0F308000B685860086918B9086A85
:1059F000801C086209E0086A401C086205E00B6A26
:105A0000581C086218780B685860C88C401E80B219
:105A1000C88458B90868C06820F080000B68D86056
:105A20000868C06840F040000B68D86000207047EC
:105A30000220FCE710B50248FDF77AFE10BD000019
:105A4000B039012010B586B0044600F065F82C4846
:105A5000046021460020FEF79DFF00BF002000905B
:105A60002848006840F0020026490860084600689F
:105A700000F00200009000BF00BF00BF00200090B7
:105A800020481030006840F480201E491031086022
:105A90000846006800F48020009000BF00BFC814D2
:105AA0000190022002900320049000200390072020
:105AB000059001A91448FCF721FF14481449086017
:105AC0000846446000218160C16001610C21416190
:105AD00000218161FDF7D6FE002211462720FDF747
